:100000000C945E000C9486000C9486000C94860080
:100010000C9486000C9486000C9486000C94860048
:100020000C9486000C9486000C9486000C94860038
:100030000C9486000C9486000C9486000C94860028
:100040000C94B5020C9486000C9483020C945D020F
:100050000C9486000C9486000C9486000C94860008
:100060000C9486000C9486000000000024002700F9
:100070002A0000000000250028002B0004040404CE
:100080000404040402020202020203030303030342
:10009000010204081020408001020408102001021F
:1000A00004081020000000080002010000030407FB
:1000B0000000000000000000FF02A50411241FBE84
:1000C000CFEFD8E0DEBFCDBF21E0A2E2B1E001C0BA
:1000D0001D92A23DB207E1F711E0A0E0B1E0E0EE31
:1000E000FDE002C005900D92A232B107D9F710E0F1
:1000F000CDE5D0E004C02197FE010E94E204CC359A
:10010000D107C9F70E943A030C94E3060C9400004F
:10011000E6EAF0E02491E2E9F0E09491EEE7F0E025
:10012000E491EE23C9F0222339F0233001F1A8F441
:10013000213019F1223029F1F0E0EE0FFF1FEE58C7
:10014000FF4FA591B4912FB7F894EC91811126C07F
:1001500090959E239C932FBF08952730A9F02830B7
:10016000C9F0243049F7209180002F7D03C02091F1
:1001700080002F7720938000DFCF24B52F7724BD18
:10018000DBCF24B52F7DFBCF2091B0002F772093BC
:10019000B000D2CF2091B0002F7DF9CF9E2BDACFC7
:1001A000AF92BF92CF92DF92EF92FF920F931F9385
:1001B000CF93DF936C017B018B01040F151FEB01C3
:1001C0005E01AE18BF08C017D10759F06991D6017A
:1001D000ED91FC910190F081E02DC6010995892BEC
:1001E00079F7C501DF91CF911F910F91FF90EF90AB
:1001F000DF90CF90BF90AF900895FC01538D448D58
:10020000252F30E0842F90E0821B930B541710F0C1
:10021000CF96089501970895FC01918D828D9817CE
:1002200061F0A28DAE0FBF2FB11D5D968C91928DA6
:100230009F5F9F73928F90E008958FEF9FEF0895D7
:10024000FC01918D828D981731F0828DE80FF11DA0
:10025000858D90E008958FEF9FEF0895FC01918DBB
:10026000228D892F90E0805C9F4F821B91098F73B4
:10027000992708958BE291E00E942E0121E0892BBD
:1002800009F420E0822F089580E090E0892B29F086
:100290000E943A0181110C9400000895FC01A48D84
:1002A000A80FB92FB11DA35ABF4F2C91848D90E098
:1002B00001968F739927848FA689B7892C93A0897B
:1002C000B1898C91837080648C93938D848D981305
:1002D00006C00288F389E02D80818F7D8083089598
:1002E000EF92FF920F931F93CF93DF93EC0181E086
:1002F000888F9B8D8C8D98131AC0E889F98980812D
:1003000085FF15C09FB7F894EE89FF896083E8895F
:10031000F98980818370806480839FBF81E090E051
:10032000DF91CF911F910F91FF90EF900895F62EDE
:100330000B8D10E00F5F1F4F0F731127E02E8C8D78
:100340008E110CC00FB607FCFACFE889F9898081BD
:1003500085FFF5CFCE010E944E01F1CFEB8DEC0F62
:10036000FD2FF11DE35AFF4FF0829FB7F8940B8FDA
:10037000EA89FB8980818062CFCFCF93DF93EC0144
:10038000888D8823B9F0AA89BB89E889F9898C917D
:1003900085FD03C0808186FD0DC00FB607FCF7CF39
:1003A0008C9185FFF2CF808185FFEDCFCE010E9439
:1003B0004E01E9CFDF91CF9108953FB7F894809136
:1003C000270190912801A0912901B0912A0126B519
:1003D000A89B05C02F3F19F00196A11DB11D3FBF7D
:1003E000BA2FA92F982F8827BC01CD01620F711D4C
:1003F000811D911D42E0660F771F881F991F4A9546
:10040000D1F70895CF93DF93EC018881998100970C
:1004100011F00E948405198218821D821C821B82A1
:100420001A82DF91CF9108950F931F93CF93DF939B
:10043000EC0188819981009759F02A813B81261728
:10044000370730F081E0DF91CF911F910F91089530
:100450008B016F5F7F4F0E940D06009759F09983C3
:1004600088831B830A832C813D81232B59F7FC0150
:100470001082E8CF80E0E7CFEF92FF920F931F93B7
:10048000CF93DF93EC017B018A01BA010E94140231
:1004900081110BC0CE010E940202CE01DF91CF91EB
:1004A0001F910F91FF90EF9008951D830C83B7016A
:1004B000888199810E94DC06F0CF1F920F920FB6BF
:1004C0000F9211242F933F934F935F936F937F93DA
:1004D0008F939F93AF93BF93EF93FF938BE291E042
:1004E0000E944E01FF91EF91BF91AF919F918F912B
:1004F0007F916F915F914F913F912F910F900FBE20
:100500000F901F9018951F920F920FB60F92112403
:100510002F938F939F93EF93FF93E0913B01F09183
:100520003C018081E0914101F091420182FD1BC0BC
:100530009081809144018F5F8F73209145018217D4
:1005400041F0E0914401F0E0E55DFE4F958F80932E
:100550004401FF91EF919F918F912F910F900FBECA
:100560000F901F9018958081F4CF1F920F920FB6B5
:100570000F9211242F933F938F939F93AF93BF9329
:100580008091230190912401A0912501B091260131
:100590003091220123E0230F2D3758F50196A11D3C
:1005A000B11D209322018093230190932401A093F5
:1005B0002501B09326018091270190912801A091F7
:1005C0002901B0912A010196A11DB11D8093270137
:1005D00090932801A0932901B0932A01BF91AF9174
:1005E0009F918F913F912F910F900FBE0F901F9071
:1005F000189526E8230F0296A11DB11DD2CFEBE27C
:10060000F1E01382128288EE93E0A0E0B0E08483F0
:100610009583A683B7838AE091E09183808385ECFC
:1006200090E09587848784EC90E09787868780ECBC
:1006300090E0918B808B81EC90E0938B828B82ECAD
:1006400090E0958B848B86EC90E0978B868B118E57
:10065000128E138E148EE8ECF1E011821082138258
:1006600012821582148250E040E06AE171E0CF010D
:100670000C943C02CF93DF93CDB7DEB728970FB62B
:10068000F894DEBF0FBECDBF789484B5826084BD80
:1006900084B5816084BD85B5826085BD85B5816086
:1006A00085BD80916E00816080936E001092810004
:1006B00080918100826080938100809181008160BF
:1006C0008093810080918000816080938000809180
:1006D000B10084608093B1008091B000816080930C
:1006E000B00080917A00846080937A0080917A00D3
:1006F000826080937A0080917A00816080937A0092
:1007000080917A00806880937A001092C100E2E9BB
:10071000F0E02491EEE7F0E08491882399F090E0F6
:10072000880F991FFC01E859FF4FA591B491FC0176
:10073000EE58FF4F859194918FB7F894EC91E22B8E
:10074000EC938FBFE0913B01F0913C0182E080830C
:10075000E0913701F09138011082E0913901F09178
:100760003A018FEC808310924301E0913F01F091B8
:10077000400186E08083E0913D01F0913E0180815F
:1007800080618083E0913D01F0913E01808188602D
:100790008083E0913D01F0913E01808180688083FB
:1007A000E0913D01F0913E0180818F7D808390E05A
:1007B000E92E90E0F92E8BE291E00E942E01892B28
:1007C00009F472C00E94DD014B015C018AE0482EF1
:1007D000512C612C712C0E94DD01681979098A095C
:1007E0009B09683E734081059105A8F321E0421AF8
:1007F00051086108710888EE880E83E0981EA11CDC
:10080000B11C411451046104710429F78BE291E099
:100810000E940C01182F1A8219821C821B821E82D0
:100820001D826091C8017091C9016115710541F087
:100830004091CC015091CD01CE0101960E943C0225
:100840001F8318860D811E810F5F1F4FB801CE01D7
:1008500001960E9414028823E9F029813A818D8152
:100860009E81BE01695F7F4F820F931F0E94DC064D
:100870001E830D8369817A816115710581F04D8137
:100880005E8188EC91E00E943C0289819A810E94FD
:10089000840591CFCE0101960E940202EBCF88EC35
:1008A00091E00E940202F1CF4091CC015091CD0124
:1008B00041155105B1F16091C8017091C9018BE2F8
:1008C00091E00E94D00042E050E068E171E08BE2EC
:1008D00091E00E94D0008091CC019091CD01892BB4
:1008E00069F06BE171E08091C8019091C9010E94AB
:1008F000D306892B19F481E00E9488008091CC01F5
:100900009091CD01892B69F06EE171E08091C80171
:100910009091C9010E94D306892B19F480E00E94AE
:10092000880050E040E06AE171E088EC91E00E94CC
:100930003C02E114F10409F43ECF0E943A018823FD
:1009400009F439CF0E94000036CF8091C801909100
:10095000C9010C9484052F923F924F925F926F923F
:100960007F928F929F92AF92BF92CF92DF92EF923F
:10097000FF920F931F93CF93DF93CDB7DEB7CA1BC0
:10098000DB0B0FB6F894DEBF0FBECDBF09942A88EB
:10099000398848885F846E847D848C849B84AA8493
:1009A000B984C884DF80EE80FD800C811B81AA8120
:1009B000B981CE0FD11D0FB6F894DEBF0FBECDBFEB
:1009C000ED010895EE0FFF1F0590F491E02D0994BD
:1009D0000F931F93CF93DF938230910510F482E041
:1009E00090E0E091D001F091D10130E020E0B0E062
:1009F000A0E0309799F42115310509F44AC0281B6D
:100A0000390B24303105D8F58A819B816115710538
:100A100089F1FB0193838283FE0111C040815181E2
:100A20000281138148175907E0F04817590799F4D4
:100A3000109761F012960C93129713961C933296AE
:100A4000CF01DF91CF911F910F9108950093D001B5
:100A50001093D101F4CF2115310551F042175307FE
:100A600038F0A901DB019A01BD01DF01F801C1CF16
:100A7000EF01F9CF9093D1018093D001CDCFFE014A
:100A8000E20FF31F81939193225031093983288318
:100A9000D7CF2091CE013091CF01232B41F420916B
:100AA0000201309103013093CF012093CE012091B8
:100AB0000001309101012115310541F42DB73EB7F8
:100AC0004091040150910501241B350BE091CE01AA
:100AD000F091CF01E217F307A0F42E1B3F0B28176C
:100AE000390778F0AC014E5F5F4F2417350748F0A7
:100AF0004E0F5F1F5093CF014093CE01819391938E
:100B00009FCFF0E0E0E09CCFCF93DF930097E9F038
:100B1000FC01329713821282A091D001B091D101D1
:100B2000ED0130E020E01097A1F420813181820FA7
:100B3000931F2091CE013091CF012817390709F07A
:100B400061C0F093CF01E093CE01DF91CF91089582
:100B5000EA01CE17DF07E8F54A815B819E01411566
:100B60005105B1F7E901FB83EA8349915991C40F1B
:100B7000D51FEC17FD0761F4808191810296840FE7
:100B8000951FE90199838883828193819B838A835E
:100B9000F0E0E0E012968D919C9113970097B9F5E3
:100BA0002D913C911197CD010296820F931F2091B8
:100BB000CE013091CF012817390739F6309751F51A
:100BC0001092D1011092D001B093CF01A093CE0129
:100BD000BCCFD383C28340815181840F951FC81736
:100BE000D90761F44E5F5F4F88819981480F591F83
:100BF000518340838A819B819383828321153105B0
:100C000009F0B0CFF093D101E093D0019ECFFD0168
:100C1000DC01C0CF13821282D7CFB0E0A0E0E3E1C5
:100C2000F6E00C94AD048C01009751F4CB010E94C6
:100C3000E8048C01C801CDB7DEB7E0E10C94C9042B
:100C4000FC01E60FF71F9C0122503109E217F30760
:100C500008F49DC0D901CD91DC911197C617D70733
:100C600098F0C530D10530F3CE0104978617970769
:100C700008F3C61BD70B2297C193D1936D937C9336
:100C8000CF010E948405D6CF5B01AC1ABD0A4C018E
:100C90008C0E9D1EA091D001B091D101512C412C00
:100CA000F12CE12C109731F58091CE019091CF017C
:100CB0008815990509F05CC04616570608F058C01B
:100CC0008091000190910101009741F48DB79EB78A
:100CD0004091040150910501841B950BE817F90719
:100CE00008F055C0F093CF01E093CE01F901718374
:100CF0006083A0CF8D919C91119712966C90129762
:100D000013967C901397A815B90559F56C0142E02C
:100D1000C40ED11CCA14DB0420F1AC014A195B09D2
:100D2000DA011296159780F06282738251834083B4
:100D3000D9016D937C93E114F10471F0D7011396FE
:100D4000FC93EE93129776CF22968C0F9D1FF9019C
:100D500091838083F301EFCFF093D101E093D00131
:100D600069CF4816590608F42C017D01D3019ACFAA
:100D7000CB010E94E8047C01009749F0AE01B80164
:100D80000E94CA06C8010E948405870153CF10E063
:100D900000E050CFFB01DC0102C001900D924150F8
:100DA0005040D8F70895FB01DC018D910190801926
:100DB0000110D9F3990B0895FB01DC0101900D920C
:100DC0000020E1F7089510E0CDE5D0E004C0FE0179
:100DD0000E94E2042196CE35D107C9F7F894FFCFDF
:100DE0000000D2018000000000007001D000FD0072
:100DF000BD012E010C0120010D0A006F6E006F660F
:020E000066008A
:00000001FF
